{
    "contractName": "Task4_Proxy",
    "abi": [
        {
            "inputs": [
                {
                    "internalType": "address",
                    "name": "_imple",
                    "type": "address"
                }
            ],
            "stateMutability": "nonpayable",
            "type": "constructor"
        },
        {
            "stateMutability": "nonpayable",
            "type": "fallback"
        },
        {
            "inputs": [],
            "name": "implementation",
            "outputs": [
                {
                    "internalType": "address",
                    "name": "",
                    "type": "address"
                }
            ],
            "stateMutability": "view",
            "type": "function"
        },
        {
            "inputs": [],
            "name": "score",
            "outputs": [
                {
                    "internalType": "uint256",
                    "name": "",
                    "type": "uint256"
                }
            ],
            "stateMutability": "view",
            "type": "function"
        },
        {
            "inputs": [
                {
                    "internalType": "address",
                    "name": "_imple",
                    "type": "address"
                }
            ],
            "name": "setImplementation",
            "outputs": [],
            "stateMutability": "nonpayable",
            "type": "function"
        }
    ],
    "bytecode": "608060405234801561001057600080fd5b506040516101da3803806101da83398101604081905261002f91610054565b600080546001600160a01b0319166001600160a01b0392909216919091179055610084565b60006020828403121561006657600080fd5b81516001600160a01b038116811461007d57600080fd5b9392505050565b610147806100936000396000f3fe608060405234801561001057600080fd5b50600436106100415760003560e01c80635c60da1b1461006a578063d784d4261461009a578063efedc669146100ca575b604051366000823760008036836000545af43d806000843e818015610064578184f35b8184fd5b005b60005461007d906001600160a01b031681565b6040516001600160a01b0390911681526020015b60405180910390f35b6100686100a83660046100e1565b600080546001600160a01b0319166001600160a01b0392909216919091179055565b6100d360015481565b604051908152602001610091565b6000602082840312156100f357600080fd5b81356001600160a01b038116811461010a57600080fd5b939250505056fea26469706673582212200cbdaac584654337a76e13b270956121446f92ae0aae8150724cd2075849544764736f6c63430008110033",
    "sourcePath": "/Users/hwang/bleem/solidity_training-for-team-bleam/Proxy/Task4/Task4_Proxy.sol",
    "compiler": {
        "name": "solc",
        "version": "0.8.17+commit.8df45f5f"
    },
    "functionHashes": {
        "implementation()": "5c60da1b",
        "score()": "efedc669",
        "setImplementation(address)": "d784d426"
    },
    "gasEstimates": {
        "creation": {
            "codeDepositCost": "65400",
            "executionCost": "infinite",
            "totalCost": "infinite"
        },
        "external": {
            "": "infinite",
            "implementation()": "2304",
            "score()": "2317",
            "setImplementation(address)": "24524"
        }
    }
}